{
  "contractName": "SafuTrendzPresale",
  "abi": [
    {
      "inputs": [],
      "stateMutability": "nonpayable",
      "type": "constructor"
    },
    {
      "anonymous": false,
      "inputs": [
        {
          "indexed": true,
          "internalType": "address",
          "name": "previousOwner",
          "type": "address"
        },
        {
          "indexed": true,
          "internalType": "address",
          "name": "newOwner",
          "type": "address"
        }
      ],
      "name": "OwnershipTransferred",
      "type": "event"
    },
    {
      "anonymous": false,
      "inputs": [
        {
          "indexed": false,
          "internalType": "address",
          "name": "",
          "type": "address"
        },
        {
          "indexed": false,
          "internalType": "uint256",
          "name": "",
          "type": "uint256"
        }
      ],
      "name": "UserDepsitedSuccess",
      "type": "event"
    },
    {
      "anonymous": false,
      "inputs": [
        {
          "indexed": false,
          "internalType": "uint256",
          "name": "",
          "type": "uint256"
        }
      ],
      "name": "UserWithdrawSuccess",
      "type": "event"
    },
    {
      "anonymous": false,
      "inputs": [
        {
          "indexed": false,
          "internalType": "uint256",
          "name": "",
          "type": "uint256"
        }
      ],
      "name": "UserWithdrawTokensSuccess",
      "type": "event"
    },
    {
      "inputs": [
        {
          "internalType": "address",
          "name": "",
          "type": "address"
        }
      ],
      "name": "buyers",
      "outputs": [
        {
          "internalType": "uint256",
          "name": "base",
          "type": "uint256"
        },
        {
          "internalType": "uint256",
          "name": "sale",
          "type": "uint256"
        }
      ],
      "stateMutability": "view",
      "type": "function"
    },
    {
      "inputs": [],
      "name": "lock_delay",
      "outputs": [
        {
          "internalType": "uint256",
          "name": "",
          "type": "uint256"
        }
      ],
      "stateMutability": "view",
      "type": "function"
    },
    {
      "inputs": [],
      "name": "owner",
      "outputs": [
        {
          "internalType": "address",
          "name": "",
          "type": "address"
        }
      ],
      "stateMutability": "view",
      "type": "function"
    },
    {
      "inputs": [],
      "name": "presale_info",
      "outputs": [
        {
          "internalType": "address",
          "name": "sale_token",
          "type": "address"
        },
        {
          "internalType": "uint256",
          "name": "token_rate",
          "type": "uint256"
        },
        {
          "internalType": "uint256",
          "name": "raise_min",
          "type": "uint256"
        },
        {
          "internalType": "uint256",
          "name": "raise_max",
          "type": "uint256"
        },
        {
          "internalType": "uint256",
          "name": "softcap",
          "type": "uint256"
        },
        {
          "internalType": "uint256",
          "name": "hardcap",
          "type": "uint256"
        },
        {
          "internalType": "uint256",
          "name": "presale_start",
          "type": "uint256"
        },
        {
          "internalType": "uint256",
          "name": "presale_end",
          "type": "uint256"
        }
      ],
      "stateMutability": "view",
      "type": "function"
    },
    {
      "inputs": [],
      "name": "renounceOwnership",
      "outputs": [],
      "stateMutability": "nonpayable",
      "type": "function"
    },
    {
      "inputs": [],
      "name": "status",
      "outputs": [
        {
          "internalType": "bool",
          "name": "force_failed",
          "type": "bool"
        },
        {
          "internalType": "uint256",
          "name": "raised_amount",
          "type": "uint256"
        },
        {
          "internalType": "uint256",
          "name": "sold_amount",
          "type": "uint256"
        },
        {
          "internalType": "uint256",
          "name": "token_withdraw",
          "type": "uint256"
        },
        {
          "internalType": "uint256",
          "name": "base_withdraw",
          "type": "uint256"
        },
        {
          "internalType": "uint256",
          "name": "num_buyers",
          "type": "uint256"
        }
      ],
      "stateMutability": "view",
      "type": "function"
    },
    {
      "inputs": [],
      "name": "tokeninfo",
      "outputs": [
        {
          "internalType": "string",
          "name": "name",
          "type": "string"
        },
        {
          "internalType": "string",
          "name": "symbol",
          "type": "string"
        },
        {
          "internalType": "uint256",
          "name": "totalsupply",
          "type": "uint256"
        },
        {
          "internalType": "uint256",
          "name": "decimal",
          "type": "uint256"
        }
      ],
      "stateMutability": "view",
      "type": "function"
    },
    {
      "inputs": [
        {
          "internalType": "address",
          "name": "newOwner",
          "type": "address"
        }
      ],
      "name": "transferOwnership",
      "outputs": [],
      "stateMutability": "nonpayable",
      "type": "function"
    },
    {
      "inputs": [
        {
          "internalType": "address",
          "name": "_sale_token",
          "type": "address"
        },
        {
          "internalType": "uint256",
          "name": "_token_rate",
          "type": "uint256"
        },
        {
          "internalType": "uint256",
          "name": "_raise_min",
          "type": "uint256"
        },
        {
          "internalType": "uint256",
          "name": "_raise_max",
          "type": "uint256"
        },
        {
          "internalType": "uint256",
          "name": "_softcap",
          "type": "uint256"
        },
        {
          "internalType": "uint256",
          "name": "_hardcap",
          "type": "uint256"
        },
        {
          "internalType": "uint256",
          "name": "_presale_start",
          "type": "uint256"
        },
        {
          "internalType": "uint256",
          "name": "_presale_end",
          "type": "uint256"
        }
      ],
      "name": "init_presale",
      "outputs": [],
      "stateMutability": "nonpayable",
      "type": "function"
    },
    {
      "inputs": [],
      "name": "presaleStatus",
      "outputs": [
        {
          "internalType": "uint256",
          "name": "",
          "type": "uint256"
        }
      ],
      "stateMutability": "view",
      "type": "function"
    },
    {
      "inputs": [],
      "name": "userDeposit",
      "outputs": [],
      "stateMutability": "payable",
      "type": "function"
    },
    {
      "inputs": [],
      "name": "userWithdrawTokens",
      "outputs": [],
      "stateMutability": "nonpayable",
      "type": "function"
    },
    {
      "inputs": [],
      "name": "userWithdrawBaseTokens",
      "outputs": [],
      "stateMutability": "nonpayable",
      "type": "function"
    },
    {
      "inputs": [
        {
          "internalType": "address",
          "name": "_address",
          "type": "address"
        }
      ],
      "name": "withdrawICOCoin",
      "outputs": [],
      "stateMutability": "nonpayable",
      "type": "function"
    },
    {
      "inputs": [],
      "name": "getTimestamp",
      "outputs": [
        {
          "internalType": "uint256",
          "name": "",
          "type": "uint256"
        }
      ],
      "stateMutability": "view",
      "type": "function"
    },
    {
      "inputs": [
        {
          "internalType": "uint256",
          "name": "delay",
          "type": "uint256"
        }
      ],
      "name": "setLockDelay",
      "outputs": [],
      "stateMutability": "nonpayable",
      "type": "function"
    },
    {
      "inputs": [],
      "name": "remainingBurn",
      "outputs": [],
      "stateMutability": "nonpayable",
      "type": "function"
    }
  ],
  "bytecode": "0x6080604052601580546001600160a01b03191661dead1790553480156200002557600080fd5b50600160005562000036336200003c565b62000154565b600062000048620000c7565b60018054808201825560009182527fb10e2d527612073b26eecdfd717e6a320cf44b4afac2b0732d9fcbe2b7fa0cf60180546001600160a01b0319166001600160a01b0386811691821790925560405193945092908416917f8be0079c531659141344cd1fd0a4f28419497f9722a3daafe3b4186f6b6457e091a35050565b600154600090801562000110576001620000e2818362000118565b81548110620000f557620000f56200013e565b6000918252602090912001546001600160a01b031692915050565b600091505090565b6000828210156200013957634e487b7160e01b600052601160045260246000fd5b500390565b634e487b7160e01b600052603260045260246000fd5b611ab880620001646000396000f3fe6080604052600436106100fe5760003560e01c806397a993aa11610095578063ca1a961d11610064578063ca1a961d14610321578063d845435314610341578063ea2094e714610356578063f2fde38b14610376578063fe8121de1461039657600080fd5b806397a993aa146102895780639d1213a7146102d2578063acfb2355146102f7578063c39e7dbb1461030c57600080fd5b80634d18b5e2116100d15780634d18b5e2146101a65780634e1b4d5414610227578063715018a6146102475780638da5cb5b1461025c57600080fd5b8063112f5dad14610103578063188ec3561461012c578063200d2ed21461013f578063481461131461019c575b600080fd5b34801561010f57600080fd5b5061011960165481565b6040519081526020015b60405180910390f35b34801561013857600080fd5b5042610119565b34801561014b57600080fd5b50600a54600b54600c54600d54600e54600f5461016d9560ff16949392919086565b6040805196151587526020870195909552938501929092526060840152608083015260a082015260c001610123565b6101a46103ab565b005b3480156101b257600080fd5b506002546003546004546005546006546007546008546009546101e2976001600160a01b03169695949392919088565b604080516001600160a01b0390991689526020890197909752958701949094526060860192909252608085015260a084015260c083015260e082015261010001610123565b34801561023357600080fd5b506101a46102423660046116a4565b610765565b34801561025357600080fd5b506101a4610a10565b34801561026857600080fd5b50610271610a45565b6040516001600160a01b039091168152602001610123565b34801561029557600080fd5b506102bd6102a4366004611700565b6014602052600090815260409020805460019091015482565b60408051928352602083019190915201610123565b3480156102de57600080fd5b506102e7610a94565b6040516101239493929190611777565b34801561030357600080fd5b50610119610bc0565b34801561031857600080fd5b506101a4610c38565b34801561032d57600080fd5b506101a461033c3660046117b0565b610ddf565b34801561034d57600080fd5b506101a4610e0d565b34801561036257600080fd5b506101a4610371366004611700565b610f31565b34801561038257600080fd5b506101a4610391366004611700565b610f96565b3480156103a257600080fd5b506101a4610fee565b600260005414156103d75760405162461bcd60e51b81526004016103ce906117c9565b60405180910390fd5b60026000556103e4610bc0565b6001146104205760405162461bcd60e51b815260206004820152600a6024820152694e6f742041637469766560b01b60448201526064016103ce565b6004543410156104805760405162461bcd60e51b815260206004820152602560248201527f4d415050595f4465706f7369743a2042616c616e636520697320696e737566666044820152641a58d95b9d60da1b60648201526084016103ce565b6005543411156104dd5760405162461bcd60e51b815260206004820152602260248201527f4d415050595f4465706f7369743a2042616c616e636520697320746f6f206d756044820152610c6d60f31b60648201526084016103ce565b336000908152601460205260408120805460055491923492909161050191906111da565b600b546007549192506000916105179190611816565b90508082116105265781610528565b805b915081831115610536578192505b6003546000906105479085906111ed565b9050600081116105995760405162461bcd60e51b815260206004820152601a60248201527f4d415050595f4465706f7369743a205a45524f20544f4b454e5300000000000060448201526064016103ce565b6002546040516370a0823160e01b81523060048201526001600160a01b03909116906370a0823190602401602060405180830381865afa1580156105e1573d6000803e3d6000fd5b505050506040513d601f19601f82011682018060405250810190610605919061182d565b600354600b546106159190611846565b11156106585760405162461bcd60e51b81526020600482015260126024820152712a37b5b2b7103932b6b0b4b71032b93937b960711b60448201526064016103ce565b845461067457600f805490600061066e83611865565b91905055505b3360009081526014602052604090205461068e90856111f9565b336000908152601460205260409020908155600101546106ae90826111f9565b33600090815260146020526040902060010155600b546106ce90856111f9565b600b55600c546106de90826111f9565b600c553484101561072157336108fc6106f734876111da565b6040518115909202916000818181858888f1935050505015801561071f573d6000803e3d6000fd5b505b604080513381523460208201527f6800c78b31b30f29de1de17ff27c5e7c5a990802a69fd1216dd496bafd9c6e01910160405180910390a150506001600055505050565b61076d611205565b151560011461078e5760405162461bcd60e51b81526004016103ce90611880565b6001600160a01b0388166107e45760405162461bcd60e51b815260206004820152601860248201527f4d415050595f496e69743a205a65726f2041646472657373000000000000000060448201526064016103ce565b600280546001600160a01b0319166001600160a01b038a169081179091556003889055600487815560058790556006869055600785905560098390556008849055604080516306fdde0360e01b815290516306fdde03928281019260009291908290030181865afa15801561085d573d6000803e3d6000fd5b505050506040513d6000823e601f3d908101601f1916820160405261088591908101906118cb565b8051610899916010916020909101906115f8565b50600254604080516395d89b4160e01b815290516001600160a01b03909216916395d89b41916004808201926000929091908290030181865afa1580156108e4573d6000803e3d6000fd5b505050506040513d6000823e601f3d908101601f1916820160405261090c91908101906118cb565b8051610920916011916020909101906115f8565b506002546040805163313ce56760e01b815290516001600160a01b039092169163313ce567916004808201926020929091908290030181865afa15801561096b573d6000803e3d6000fd5b505050506040513d601f19601f8201168201806040525081019061098f9190611978565b60ff16601355600254604080516318160ddd60e01b815290516001600160a01b03909216916318160ddd916004808201926020929091908290030181865afa1580156109df573d6000803e3d6000fd5b505050506040513d601f19601f82011682018060405250810190610a03919061182d565b6012555050505050505050565b610a18611205565b1515600114610a395760405162461bcd60e51b81526004016103ce90611880565b610a436000611287565b565b6001546000908015610a88576001610a5d8183611816565b81548110610a6d57610a6d61199b565b6000918252602090912001546001600160a01b031692915050565b600091505090565b5090565b601080548190610aa3906119b1565b80601f0160208091040260200160405190810160405280929190818152602001828054610acf906119b1565b8015610b1c5780601f10610af157610100808354040283529160200191610b1c565b820191906000526020600020905b815481529060010190602001808311610aff57829003601f168201915b505050505090806001018054610b31906119b1565b80601f0160208091040260200160405190810160405280929190818152602001828054610b5d906119b1565b8015610baa5780601f10610b7f57610100808354040283529160200191610baa565b820191906000526020600020905b815481529060010190602001808311610b8d57829003601f168201915b5050505050908060020154908060030154905084565b60095460009042118015610bd75750600654600b54105b15610be25750600390565b600754600b5410610bf35750600290565b60095442118015610c085750600654600b5410155b15610c135750600290565b6008544210801590610c2757506009544211155b15610c325750600190565b50600090565b60026000541415610c5b5760405162461bcd60e51b81526004016103ce906117c9565b6002600055610c68610bc0565b600314610cb75760405162461bcd60e51b815260206004820181905260248201527f4d415050595f57697468647261775f426173653a204e6f74206661696c65642e60448201526064016103ce565b33600090815260146020526040902080544790811015610d2b5760405162461bcd60e51b815260206004820152602960248201527f4d415050595f57697468647261775f426173653a204e6f7468696e6720746f206044820152683bb4ba34323930bb9760b91b60648201526084016103ce565b8154600e54610d39916111f9565b600e5581546040513391829181156108fc0291906000818181858888f19350505050158015610d6c573d6000803e3d6000fd5b50610d75610a45565b6001600160a01b0316336001600160a01b03161415610d9657610d96611310565b6000808455600184018190556040519081527fba8f86526b8f4836c344cbbb8d752a5deb45d8d86c8fdcc0318124656ed1f1699060200160405180910390a15050600160005550565b610de7611205565b1515600114610e085760405162461bcd60e51b81526004016103ce90611880565b601655565b610e15611205565b1515600114610e365760405162461bcd60e51b81526004016103ce90611880565b610e3e610bc0565b600214610e8d5760405162461bcd60e51b815260206004820152601960248201527f4d415050595f4275726e3a204e6f74207375636365656465640000000000000060448201526064016103ce565b600c54600354600754610ea09190611846565b1015610eee5760405162461bcd60e51b815260206004820152601b60248201527f4d415050595f4275726e3a204e6f7468696e6720746f206275726e000000000060448201526064016103ce565b600c5460035460075460009291610f0491611846565b610f0e9190611816565b600254601554919250610f2e916001600160a01b039182169116836114cf565b50565b610f39611205565b1515600114610f5a5760405162461bcd60e51b81526004016103ce90611880565b60405181906001600160a01b038216904780156108fc02916000818181858888f19350505050158015610f91573d6000803e3d6000fd5b505050565b610f9e611205565b1515600114610fbf5760405162461bcd60e51b81526004016103ce90611880565b6001600160a01b038116610fe55760405162461bcd60e51b81526004016103ce906119e6565b610f2e81611287565b600260005414156110115760405162461bcd60e51b81526004016103ce906117c9565b600260005561101e610bc0565b60021461106d5760405162461bcd60e51b815260206004820152601d60248201527f4d415050595f57697468647261773a204e6f742073756363656564656400000060448201526064016103ce565b60165460095461107d9190611a2c565b4210156110cc5760405162461bcd60e51b815260206004820152601d60248201527f4d415050595f57697468647261773a20546f6b656e204c6f636b65642e00000060448201526064016103ce565b336000908152601460205260408120600d54600c549192916110ed916111da565b9050816001015481101561114f5760405162461bcd60e51b8152602060048201526024808201527f4d415050595f57697468647261773a204e6f7468696e6720746f2077697468646044820152633930bb9760e11b60648201526084016103ce565b600254600183015461116c916001600160a01b03169033906114cf565b6001820154600d5461117d916111f9565b600d5533600090815260146020908152604080832060018082018590559390559184015491519182527f6eb77a5c4ed3153e65b1a8804e82c2ffa0d2b39fd8dba4ae39b6476c7bf65f7e910160405180910390a150506001600055565b60006111e68284611816565b9392505050565b60006111e68284611846565b60006111e68284611a2c565b6000336112245760405162461bcd60e51b81526004016103ce906119e6565b6000805b60015481101561128157336001600160a01b03166001828154811061124f5761124f61199b565b6000918252602090912001546001600160a01b0316141561126f57600191505b8061127981611865565b915050611228565b50919050565b6000611291610a45565b60018054808201825560009182527fb10e2d527612073b26eecdfd717e6a320cf44b4afac2b0732d9fcbe2b7fa0cf60180546001600160a01b0319166001600160a01b0386811691821790925560405193945092908416917f8be0079c531659141344cd1fd0a4f28419497f9722a3daafe3b4186f6b6457e091a35050565b611318611205565b15156001146113395760405162461bcd60e51b81526004016103ce90611880565b611341610bc0565b6003146113a75760405162461bcd60e51b815260206004820152602e60248201527f4d415050595f57697468647261775f426173655f4f776e65723a204f6e6c792060448201526d3330b4b632b21039ba30ba3ab99760911b60648201526084016103ce565b600254611430906001600160a01b03166113bf610a45565b6002546040516370a0823160e01b81523060048201526001600160a01b03909116906370a0823190602401602060405180830381865afa158015611407573d6000803e3d6000fd5b505050506040513d601f19601f8201168201806040525081019061142b919061182d565b6114cf565b6002546040516370a0823160e01b81523060048201527fba8f86526b8f4836c344cbbb8d752a5deb45d8d86c8fdcc0318124656ed1f169916001600160a01b0316906370a0823190602401602060405180830381865afa158015611498573d6000803e3d6000fd5b505050506040513d601f19601f820116820180604052508101906114bc919061182d565b60405190815260200160405180910390a1565b604080516001600160a01b038481166024830152604480830185905283518084039091018152606490920183526020820180516001600160e01b031663a9059cbb60e01b179052915160009283929087169161152b9190611a44565b6000604051808303816000865af19150503d8060008114611568576040519150601f19603f3d011682016040523d82523d6000602084013e61156d565b606091505b50915091508180156115975750805115806115975750808060200190518101906115979190611a60565b6115f15760405162461bcd60e51b815260206004820152602560248201527f4d415050595f5472616e7366657248656c7065723a205452414e534645525f46604482015264105253115160da1b60648201526084016103ce565b5050505050565b828054611604906119b1565b90600052602060002090601f016020900481019282611626576000855561166c565b82601f1061163f57805160ff191683800117855561166c565b8280016001018555821561166c579182015b8281111561166c578251825591602001919060010190611651565b50610a909291505b80821115610a905760008155600101611674565b80356001600160a01b038116811461169f57600080fd5b919050565b600080600080600080600080610100898b0312156116c157600080fd5b6116ca89611688565b9a60208a01359a5060408a013599606081013599506080810135985060a0810135975060c0810135965060e00135945092505050565b60006020828403121561171257600080fd5b6111e682611688565b60005b8381101561173657818101518382015260200161171e565b83811115611745576000848401525b50505050565b6000815180845261176381602086016020860161171b565b601f01601f19169290920160200192915050565b60808152600061178a608083018761174b565b828103602084015261179c818761174b565b604084019590955250506060015292915050565b6000602082840312156117c257600080fd5b5035919050565b6020808252601f908201527f5265656e7472616e637947756172643a207265656e7472616e742063616c6c00604082015260600190565b634e487b7160e01b600052601160045260246000fd5b60008282101561182857611828611800565b500390565b60006020828403121561183f57600080fd5b5051919050565b600081600019048311821515161561186057611860611800565b500290565b600060001982141561187957611879611800565b5060010190565b6020808252818101527f4f776e61626c653a2063616c6c6572206973206e6f7420746865206f776e6572604082015260600190565b634e487b7160e01b600052604160045260246000fd5b6000602082840312156118dd57600080fd5b815167ffffffffffffffff808211156118f557600080fd5b818401915084601f83011261190957600080fd5b81518181111561191b5761191b6118b5565b604051601f8201601f19908116603f01168101908382118183101715611943576119436118b5565b8160405282815287602084870101111561195c57600080fd5b61196d83602083016020880161171b565b979650505050505050565b60006020828403121561198a57600080fd5b815160ff811681146111e657600080fd5b634e487b7160e01b600052603260045260246000fd5b600181811c908216806119c557607f821691505b6020821081141561128157634e487b7160e01b600052602260045260246000fd5b60208082526026908201527f4f776e61626c653a206e6577206f776e657220697320746865207a65726f206160408201526564647265737360d01b606082015260800190565b60008219821115611a3f57611a3f611800565b500190565b60008251611a5681846020870161171b565b9190910192915050565b600060208284031215611a7257600080fd5b815180151581146111e657600080fdfea2646970667358221220760ffb68f91d1240687929336fd7e00d3d3357683080257e22985d3c4bbf656064736f6c634300080c0033",
  "immutableReferences": {},
  "source": "// SPDX-License-Identifier: MIT\r\n\r\npragma solidity ^0.8.11;\r\n\r\n/**\r\n *           \r\n *      \r\n *                    \r\n *                   \r\n *                 \r\n *                     \r\n *                                                                                  \r\n *                                                                              \r\n *                                                                                \r\n *                                                                                 \r\n *                                                                                  \r\n *                                                                                  \r\n */\r\n\r\nimport \"@openzeppelin/contracts/utils/Address.sol\";\r\nimport \"@openzeppelin/contracts/utils/Context.sol\";\r\nimport \"@openzeppelin/contracts/access/Ownable.sol\";\r\nimport \"@openzeppelin/contracts/utils/math/SafeMath.sol\";\r\nimport \"@openzeppelin/contracts/utils/structs/EnumerableSet.sol\";\r\nimport \"@openzeppelin/contracts/security/ReentrancyGuard.sol\";\r\nimport \"@openzeppelin/contracts/token/ERC20/IERC20.sol\";\r\nimport \"@openzeppelin/contracts/token/ERC20/extensions/IERC20Metadata.sol\";\r\nimport \"@openzeppelin/contracts/token/ERC20/utils/SafeERC20.sol\";\r\n\r\nlibrary TransferHelper {\r\n    function safeApprove(address token, address to, uint value) internal {\r\n        (bool success, bytes memory data) = token.call(abi.encodeWithSelector(0x095ea7b3, to, value));\r\n        require(success && (data.length == 0 || abi.decode(data, (bool))), 'MAPPY_TransferHelper: APPROVE_FAILED');\r\n    }\r\n\r\n    function safeTransfer(address token, address to, uint value) internal {\r\n        (bool success, bytes memory data) = token.call(abi.encodeWithSelector(0xa9059cbb, to, value));\r\n        require(success && (data.length == 0 || abi.decode(data, (bool))), 'MAPPY_TransferHelper: TRANSFER_FAILED');\r\n    }\r\n\r\n    function safeTransferFrom(address token, address from, address to, uint value) internal {\r\n        (bool success, bytes memory data) = token.call(abi.encodeWithSelector(0x23b872dd, from, to, value));\r\n        require(success && (data.length == 0 || abi.decode(data, (bool))), 'MAPPY_TransferHelper: TRANSFER_FROM_FAILED');\r\n    }\r\n    \r\n    // sends ETH or an erc20 token\r\n    function safeTransferBaseToken(address token, address payable to, uint value, bool isERC20) internal {\r\n        if (!isERC20) {\r\n            to.transfer(value);\r\n        } else {\r\n            (bool success, bytes memory data) = token.call(abi.encodeWithSelector(0xa9059cbb, to, value));\r\n            require(success && (data.length == 0 || abi.decode(data, (bool))), 'MAPPY_TransferHelper: TRANSFER_FAILED');\r\n        }\r\n    }\r\n}\r\n\r\ncontract SafuTrendzPresale is ReentrancyGuard, Ownable {\r\n    using Address for address;\r\n    using SafeMath for uint256;\r\n    using SafeERC20 for IERC20;\r\n\r\n    struct PresaleInfo {\r\n        address sale_token; // Sale token\r\n        uint256 token_rate; // 1 base token = ? s_tokens, fixed price\r\n        uint256 raise_min; // Maximum base token BUY amount per buyer\r\n        uint256 raise_max; // The amount of presale tokens up for presale\r\n        uint256 softcap; // Minimum raise amount\r\n        uint256 hardcap; // Maximum raise amount\r\n        uint256 presale_start;\r\n        uint256 presale_end;\r\n    }\r\n\r\n    struct PresaleStatus {\r\n        bool force_failed; // Set this flag to force fail the presale\r\n        uint256 raised_amount; // Total base currency raised (usually ETH)\r\n        uint256 sold_amount; // Total presale tokens sold\r\n        uint256 token_withdraw; // Total tokens withdrawn post successful presale\r\n        uint256 base_withdraw; // Total base tokens withdrawn on presale failure\r\n        uint256 num_buyers; // Number of unique participants\r\n    }\r\n\r\n    struct BuyerInfo {\r\n        uint256 base; // Total base token (usually ETH) deposited by user, can be withdrawn on presale failure\r\n        uint256 sale; // Num presale tokens a user owned, can be withdrawn on presale success\r\n    }\r\n    \r\n    struct TokenInfo {\r\n        string name;\r\n        string symbol;\r\n        uint256 totalsupply;\r\n        uint256 decimal;\r\n    }\r\n  \r\n    PresaleInfo public presale_info;\r\n    PresaleStatus public status;\r\n    TokenInfo public tokeninfo;\r\n\r\n    mapping(address => BuyerInfo) public buyers;\r\n\r\n    event UserDepsitedSuccess(address, uint256);\r\n    event UserWithdrawSuccess(uint256);\r\n    event UserWithdrawTokensSuccess(uint256);\r\n\r\n    address deadaddr = 0x000000000000000000000000000000000000dEaD;\r\n    uint256 public lock_delay;\r\n\r\n    uint256 private constant privilegedTime = 10 * 60; // 10 min\r\n\r\n    constructor () {}\r\n\r\n    function init_presale (\r\n        address _sale_token,\r\n        uint256 _token_rate,\r\n        uint256 _raise_min, \r\n        uint256 _raise_max, \r\n        uint256 _softcap, \r\n        uint256 _hardcap,\r\n        uint256 _presale_start,\r\n        uint256 _presale_end\r\n        ) public onlyOwner {\r\n\r\n        require(_sale_token != address(0), \"MAPPY_Init: Zero Address\");\r\n        \r\n        presale_info.sale_token = address(_sale_token);\r\n        presale_info.token_rate = _token_rate;\r\n        presale_info.raise_min = _raise_min;\r\n        presale_info.raise_max = _raise_max;\r\n        presale_info.softcap = _softcap;\r\n        presale_info.hardcap = _hardcap;\r\n\r\n        presale_info.presale_end = _presale_end;\r\n        presale_info.presale_start =  _presale_start;\r\n        \r\n        //Set token token info\r\n        tokeninfo.name = IERC20Metadata(presale_info.sale_token).name();\r\n        tokeninfo.symbol = IERC20Metadata(presale_info.sale_token).symbol();\r\n        tokeninfo.decimal = IERC20Metadata(presale_info.sale_token).decimals();\r\n        tokeninfo.totalsupply = IERC20Metadata(presale_info.sale_token).totalSupply();\r\n    }\r\n\r\n    function presaleStatus() public view returns (uint256) {\r\n        if ((block.timestamp > presale_info.presale_end) && (status.raised_amount < presale_info.softcap)) {\r\n            return 3; // Failure\r\n        }\r\n        if (status.raised_amount >= presale_info.hardcap) {\r\n            return 2; // Wonderful - reached to Hardcap\r\n        }\r\n        if ((block.timestamp > presale_info.presale_end) && (status.raised_amount >= presale_info.softcap)) {\r\n            return 2; // SUCCESS - Presale ended with reaching Softcap\r\n        }\r\n        if ((block.timestamp >= presale_info.presale_start) && (block.timestamp <= presale_info.presale_end)) {\r\n            return 1; // ACTIVE - Deposits enabled, now in Presale\r\n        }\r\n            return 0; // QUEUED - Awaiting start block\r\n    }\r\n    \r\n    // Accepts msg.value for eth or _amount for ERC20 tokens\r\n    function userDeposit () public payable nonReentrant {\r\n        require(presaleStatus() == 1, \"Not Active\");\r\n        require(presale_info.raise_min <= msg.value, \"MAPPY_Deposit: Balance is insufficent\");\r\n        require(presale_info.raise_max >= msg.value, \"MAPPY_Deposit: Balance is too much\");\r\n\r\n        BuyerInfo storage buyer = buyers[msg.sender];\r\n\r\n        uint256 amount_in = msg.value;\r\n        uint256 allowance = presale_info.raise_max.sub(buyer.base);\r\n        uint256 remaining = presale_info.hardcap - status.raised_amount;\r\n\r\n        allowance = allowance > remaining ? remaining : allowance;\r\n        if (amount_in > allowance) {\r\n            amount_in = allowance;\r\n        }\r\n\r\n        uint256 tokensSold = amount_in.mul(presale_info.token_rate);\r\n\r\n        require(tokensSold > 0, \"MAPPY_Deposit: ZERO TOKENS\");\r\n        require(status.raised_amount * presale_info.token_rate <= IERC20(presale_info.sale_token).balanceOf(address(this)), \"Token remain error\");\r\n        \r\n        if (buyer.base == 0) {\r\n            status.num_buyers++;\r\n        }\r\n        buyers[msg.sender].base = buyers[msg.sender].base.add(amount_in);\r\n        buyers[msg.sender].sale = buyers[msg.sender].sale.add(tokensSold);\r\n        status.raised_amount = status.raised_amount.add(amount_in);\r\n        status.sold_amount = status.sold_amount.add(tokensSold);\r\n        \r\n        // return unused ETH\r\n        if (amount_in < msg.value) {\r\n            payable(msg.sender).transfer(msg.value.sub(amount_in));\r\n        }\r\n        \r\n        emit UserDepsitedSuccess(msg.sender, msg.value);\r\n    }\r\n    \r\n    // withdraw presale tokens\r\n    // percentile withdrawls allows fee on transfer or rebasing tokens to still work\r\n    function userWithdrawTokens () public nonReentrant {\r\n        require(presaleStatus() == 2, \"MAPPY_Withdraw: Not succeeded\"); // Success\r\n        require(block.timestamp >= presale_info.presale_end + lock_delay, \"MAPPY_Withdraw: Token Locked.\"); // Lock duration check\r\n        \r\n        BuyerInfo storage buyer = buyers[msg.sender];\r\n        uint256 remaintoken = status.sold_amount.sub(status.token_withdraw);\r\n        require(remaintoken >= buyer.sale, \"MAPPY_Withdraw: Nothing to withdraw.\");\r\n        \r\n        TransferHelper.safeTransfer(address(presale_info.sale_token), msg.sender, buyer.sale);\r\n        \r\n        status.token_withdraw = status.token_withdraw.add(buyer.sale);\r\n        buyers[msg.sender].sale = 0;\r\n        buyers[msg.sender].base = 0;\r\n        \r\n        emit UserWithdrawTokensSuccess(buyer.sale);\r\n    }\r\n    \r\n    // On presale failure\r\n    // Percentile withdrawls allows fee on transfer or rebasing tokens to still work\r\n    function userWithdrawBaseTokens () public nonReentrant {\r\n        require(presaleStatus() == 3, \"MAPPY_Withdraw_Base: Not failed.\"); // FAILED\r\n        \r\n        // Refund\r\n        BuyerInfo storage buyer = buyers[msg.sender];\r\n        \r\n        uint256 remainingBaseBalance = address(this).balance;\r\n        \r\n        require(remainingBaseBalance >= buyer.base, \"MAPPY_Withdraw_Base: Nothing to withdraw.\");\r\n\r\n        status.base_withdraw = status.base_withdraw.add(buyer.base);\r\n        \r\n        address payable reciver = payable(msg.sender);\r\n        reciver.transfer(buyer.base);\r\n\r\n        if(msg.sender == owner()) {\r\n            ownerWithdrawTokens();\r\n        }\r\n\r\n        buyer.base = 0;\r\n        buyer.sale = 0;\r\n        \r\n        emit UserWithdrawSuccess(buyer.base);\r\n    }\r\n    \r\n    // On presale failure\r\n    // Allows the owner to withdraw the tokens they sent for presale\r\n    function ownerWithdrawTokens () private onlyOwner {\r\n        require(presaleStatus() == 3, \"MAPPY_Withdraw_Base_Owner: Only failed status.\"); // FAILED\r\n        TransferHelper.safeTransfer(address(presale_info.sale_token), owner(), IERC20(presale_info.sale_token).balanceOf(address(this)));\r\n        \r\n        emit UserWithdrawSuccess(IERC20(presale_info.sale_token).balanceOf(address(this)));\r\n    }\r\n\r\n    function withdrawICOCoin (address _address) public onlyOwner {\r\n        address payable reciver = payable(_address);\r\n        reciver.transfer(address(this).balance);\r\n    }\r\n\r\n    function getTimestamp () public view returns (uint256) {\r\n        return block.timestamp;\r\n    }\r\n\r\n    function setLockDelay (uint256 delay) public onlyOwner {\r\n        lock_delay = delay;\r\n    }\r\n\r\n    function remainingBurn() public onlyOwner {\r\n        require(presaleStatus() == 2, \"MAPPY_Burn: Not succeeded\"); // Success\r\n        require(presale_info.hardcap * presale_info.token_rate >= status.sold_amount, \"MAPPY_Burn: Nothing to burn\");\r\n        \r\n        uint256 rushTokenAmount = presale_info.hardcap * presale_info.token_rate - status.sold_amount;\r\n\r\n        TransferHelper.safeTransfer(address(presale_info.sale_token), address(deadaddr), rushTokenAmount);\r\n    }\r\n}",
  "sourcePath": "F:\\Cory_Career\\presale-safutrendz-website-contract\\contracts\\Presale.sol",
  "compiler": {
    "name": "solc",
    "version": "0.8.12+commit.f00d7308.Emscripten.clang"
  },
  "schemaVersion": "3.4.3",
  "updatedAt": "2022-03-10T23:52:22.417Z",
  "devdoc": {
    "kind": "dev",
    "methods": {
      "owner()": {
        "details": "Returns the address of the current owner."
      },
      "renounceOwnership()": {
        "details": "Leaves the contract without owner. It will not be possible to call `onlyOwner` functions anymore. Can only be called by the current owner. NOTE: Renouncing ownership will leave the contract without an owner, thereby removing any functionality that is only available to the owner."
      },
      "transferOwnership(address)": {
        "details": "Transfers ownership of the contract to a new account (`newOwner`). Can only be called by the current owner."
      }
    },
    "version": 1
  },
  "userdoc": {
    "kind": "user",
    "methods": {},
    "version": 1
  }
}